:100000000C9438000C9455000C9455000C94550039
:100010000C9455000C9455000C9455000C9455000C
:100020000C9455000C9455000C9455000C945500FC
:100030000C9455000C9455000C9455000C945500EC
:100040000C9455000C9455000C9455000C945500DC
:100050000C9455000C9455000C9455000C945500CC
:100060000C9455000C9455000C9455000C945500BC
:1000700011241FBECFEFD4E0DEBFCDBF11E0A0E062
:10008000B1E0E4EDF4E002C005900D92AC31B107AF
:10009000D9F721E0ACE1B1E001C01D92A632B20770
:1000A000E1F70E9457000C9468020C9400008FE165
:1000B00090E00E948A0086E091E00E94E800C8E794
:1000C0008DE00E9482008BE40E94820085E50E9400
:1000D00082008BE40E9482008AE30E9482008C2FBF
:1000E0000E9482008AE00E9482000E948600C82F3F
:1000F0002FEF8FE791E0215080409040E1F700C062
:1001000000C0DECF5D9BFECF8CB908955F9BFECF14
:100110008CB1089520B5922B90BD99B1892B89B9E6
:100120008AB188618AB980B58E6880BD66E870E062
:1001300082E890E00E949D0008950F931F93CF9353
:10014000DF93009731F46115710519F480E090E0B8
:100150003AC08B01EC016EE070E081E090E00E941B
:100160001801FC01892B91F380E8838301151105A7
:1001700071F01387028781E8838380911C0190913D
:100180001D01892B21F4F0931D01E0931C012097A0
:10019000C9F0D187C08783818260838380911E01EB
:1001A00090911F01892B71F4F0931F01E0931E01C0
:1001B0008091200190912101892B21F4F09321015C
:1001C000E0932001CF01DF91CF911F910F9108950E
:1001D0000F931F93CF93DF93E0911E01F0911F01C6
:1001E000238121FF1BC08C01D0E0C0E0F801819188
:1001F0008F0160911E0170911F01DB011896ED9136
:10020000FC911997882331F00995892B79F3DFEF59
:10021000CFEFECCF8AE00995892B19F08FEF9FEF94
:1002200002C08D2F9C2FDF91CF911F910F910895C8
:100230000F931F93CF93DF93869F8001879F100DAD
:10024000969F100D1124C8010E943401EC01009703
:1002500029F0A80160E070E00E946102CE01DF9108
:10026000CF911F910F910895CF93DF938230910525
:1002700010F482E090E0E0912401F091250120E06B
:1002800030E0C0E0D0E0309711F140815181481753
:100290005907C0F04817590761F48281938120976C
:1002A00019F09B838A832BC09093250180932401AE
:1002B00026C02115310519F04217530718F49A0189
:1002C000BE01DF01EF010280F381E02DDCCF2115BB
:1002D000310509F1281B390B2430310590F41296B1
:1002E0008D919C9113976115710521F0FB0193830A
:1002F000828304C09093250180932401FD013296EE
:1003000044C0FD01E20FF31F819391932250310904
:100310002D933C933AC02091220130912301232B4D
:1003200041F4209102013091030130932301209385
:10033000220120910001309101012115310541F484
:100340002DB73EB74091040150910501241B350B98
:10035000E0912201F0912301E217F307A0F42E1B94
:100360003F0B2817390778F0AC014E5F5F4F241719
:10037000350748F04E0F5F1F509323014093220131
:100380008193919302C0E0E0F0E0CF01DF91CF9143
:1003900008950F931F93CF93DF93009709F48CC0B8
:1003A000FC013297138212820091240110912501E1
:1003B0000115110581F420813181820F931F209155
:1003C0002201309123012817390779F5F093230191
:1003D000E093220171C0D80140E050E0AE17BF07A2
:1003E00050F412962D913C911397AD0121153105D2
:1003F00009F1D901F3CF9D01DA01338322836081B2
:100400007181860F971F8217930769F4EC01288189
:100410003981260F371F2E5F3F4F318320838A811A
:100420009B8193838283452B29F4F0932501E093EC
:10043000240142C01396FC93EE931297ED0149916B
:1004400059919E01240F351FE217F30771F4808143
:100450009181840F951F029611969C938E938281B1
:10046000938113969C938E931297E0E0F0E0D8016D
:1004700012968D919C911397009719F0F8018C01B9
:10048000F6CF8D919C9198012E5F3F4F820F931F65
:1004900020912201309123012817390769F4309700
:1004A00029F4109225011092240102C013821282B5
:1004B0001093230100932201DF91CF911F910F919F
:1004C0000895DC0101C06D9341505040E0F708955C
:0404D000F894FFCFCE
:1004D4000000260120000D68656C6C6F206D6F7440
:0C04E4006865726675636B6572730000DA
:00000001FF
