:100000000C9438000C9442000C9442000C94420072
:100010000C9442000C9442000C9442000C94420058
:100020000C9442000C9442000C9442000C94420048
:100030000C9442000C9442000C9442000C94420038
:100040000C9442000C9442000C9442000C94420028
:100050000C9442000C9442000C9442000C94420018
:100060000C9442000C9442000C9442000C94420008
:1000700011241FBECFEFD4E0DEBFCDBF0E944F00E2
:100080000C9459000C940000882341F0E9EFF0E053
:100090003197F1F700C000008150C1F70895A29A8E
:1000A000AA9884E60E944400AA9A84E60E9444002A
:0600B000F7CFF894FFCF2A
:00000001FF
